:020000040000FA
:100000000C9458000C9480000C9480000C94800098
:100010000C9480000C9480000C9480000C94800060
:100020000C9480000C9480000C9480000C94800050
:100030000C9480000C9480000C9480000C94800040
:100040000C9401030C9480000C94CF020C94A90230
:100050000C9480000C9480000C9480000C94800020
:100060000C944B030C948000000000002500280035
:100070002B00040404040404040402020202020229
:10008000030303030303010204081020408001025C
:1000900004081020010204081020000000080002DB
:1000A00001000003040700000000000000006604D7
:1000B00011241FBECFEFD8E0DEBFCDBF11E0A0E01E
:1000C000B1E0E2EFFBE002C005900D92A831B1076C
:1000D000D9F722E0A8E1B1E001C01D92A433B20734
:1000E000E1F710E0C8E5D0E004C02197FE010E94CE
:1000F000F105C735D107C9F70E9493040C94F705A1
:100100000C940000AF92BF92CF92DF92EF92FF92D9
:100110000F931F93CF93DF936C017B018B01040F2F
:10012000151FEB015E01AE18BF08C017D10759F0CB
:100130006991D601ED91FC910190F081E02DC6010D
:100140000995892B79F7C501DF91CF911F910F9107
:10015000FF90EF90DF90CF90BF90AF900895FC019B
:10016000538D448D252F30E0842F90E0821B930B1C
:10017000541710F0CF96089501970895FC01918DC2
:10018000828D981761F0A28DAE0FBF2FB11D5D96C5
:100190008C91928D9F5F9F73928F90E008958FEF67
:1001A0009FEF0895FC01918D828D981731F0828D1B
:1001B000E80FF11D858D90E008958FEF9FEF089572
:1001C000FC01918D228D892F90E0805C9F4F821BD6
:1001D00091098F739927089587E991E00E94E000C3
:1001E00021E0892B09F420E0822F089580E090E03F
:1001F000892B29F00E94EC0081110C9400000895D5
:10020000FC01A48DA80FB92FB11DA35ABF4F2C918B
:10021000848D90E001968F739927848FA689B78982
:100220002C93A089B1898C91837080648C93938D79
:10023000848D981306C00288F389E02D80818F7D1C
:1002400080830895EF92FF920F931F93CF93DF93D4
:10025000EC0181E0888F9B8D8C8D98131AC0E88902
:10026000F989808185FF15C09FB7F894EE89FF89D1
:100270006083E889F98980818370806480839FBF6F
:1002800081E090E0DF91CF911F910F91FF90EF906F
:100290000895F62E0B8D10E00F5F1F4F0F7311277F
:1002A000E02E8C8D8E110CC00FB607FCFACFE889BA
:1002B000F989808185FFF5CFCE010E940001F1CF41
:1002C000EB8DEC0FFD2FF11DE35AFF4FF0829FB72E
:1002D000F8940B8FEA89FB8980818062CFCF682FE9
:1002E00087E991E00C942201CF93DF93EC01888D94
:1002F0008823B9F0AA89BB89E889F9898C9185FDA1
:1003000003C0808186FD0DC00FB607FCF7CF8C912E
:1003100085FFF2CF808185FFEDCFCE010E940001E5
:10032000E9CFDF91CF91089590E0FC01E656FF4FB1
:100330002491FC01EA57FF4F3491FC01EE58FF4F26
:10034000E491EE23C9F0222339F0233001F1A8F41F
:10035000213019F1223029F1F0E0EE0FFF1FE859AA
:10036000FF4FA591B4918FB7F894EC91611126C01D
:1003700030953E233C938FBF08952730A9F0283055
:10038000C9F0243049F7809180008F7D03C08091AF
:1003900080008F7780938000DFCF84B58F7784BD16
:1003A000DBCF84B58F7DFBCF8091B0008F778093BA
:1003B000B000D2CF8091B0008F7DF9CF3E2BDACF45
:1003C00020913F01260F3327331F21323105ECF4F2
:1003D00020916301FC0190E080E0243069F082E02C
:1003E0000895A0913F012191AC01415E5E4FA40FA1
:1003F000B52FB11D2C930196861798F380913F017C
:10040000680F60933F0180E0089581E008950895AA
:100410008FEF9FEF08958FEF9FEF08958091180160
:1004200090E09195819591090895CF93DF93CB0149
:10043000EA01642F0E94E001CE01DF91CF9108957F
:10044000CF93DF931F92CDB7DEB7698361E0CE0112
:1004500001960E94E00181E090E00F90DF91CF9142
:10046000089590E080E008951F93CF93DF9385ED8A
:100470008093BC0080911B0190911C01A0911D01F3
:10048000B0911E010796A11DB11D23E0B695A79559
:10049000979587952A95D1F72091BC0024FD03C03C
:1004A0001092630152C040911B0150911C01609158
:1004B0001D0170911E01452B462B472B69F30097B8
:1004C000A105B10541F025E32A95F1F70000019758
:1004D000A109B109E1CF80911A01C1E0C0931901CE
:1004E000882399F1D091B8001091BA008091BC0096
:1004F0008A7B8093BC0060E082E10E94940160E00E
:1005000083E10E94940110926301C09365011092EF
:10051000640161E082E10E94940161E083E10E9454
:1005200094018091B9008E7F8093B9008091B900C9
:100530008D7F8093B90088E48093B80085E4809330
:10054000BC001093BA00D093B800DF91CF911F91F7
:1005500008951F920F920FB60F9211242F933F937D
:100560004F935F936F937F938F939F93AF93BF93BB
:10057000EF93FF9387E991E00E940001FF91EF91D3
:10058000BF91AF919F918F917F916F915F914F91AB
:100590003F912F910F900FBE0F901F9018951F92B3
:1005A0000F920FB60F9211242F938F939F93EF9377
:1005B000FF93E091A701F091A8018081E091AD0146
:1005C000F091AE0182FD1BC090818091B0018F5FE0
:1005D0008F732091B101821741F0E091B001F0E0FA
:1005E000E956FE4F958F8093B001FF91EF919F9157
:1005F0008F912F910F900FBE0F901F9018958081B3
:10060000F4CF1F920F920FB60F9211242F933F93A6
:100610008F939F93AF93BF9380918E0190918F01A1
:10062000A0919001B091910130918D0123E0230FB1
:100630002D3758F50196A11DB11D20938D01809392
:100640008E0190938F01A0939001B09391018091BE
:10065000890190918A01A0918B01B0918C01019642
:10066000A11DB11D8093890190938A01A0938B01F4
:10067000B0938C01BF91AF919F918F913F912F913A
:100680000F900FBE0F901F90189526E8230F02962B
:10069000A11DB11DD2CF1F920F920FB60F92112440
:1006A0002F933F934F935F936F937F938F939F937A
:1006B000AF93BF93EF93FF938091B900887F80360B
:1006C00009F44AC0F0F5883209F4A5C018F5803164
:1006D00009F499C0B8F4882309F4F5C0883009F406
:1006E00092C0FF91EF91BF91AF919F918F917F91B8
:1006F0006F915F914F913F912F910F900FBE0F908F
:100700001F901895883109F486C0803251F7809384
:10071000620114C0803409F49BC040F48033B9F303
:100720008833F9F68093620185ECAEC0803509F418
:1007300083C0883509F494C0883499F60E94340245
:10074000D0CF883909F48AC038F5883729F050F4B9
:10075000883611F0803729F683E080936301109288
:10076000610155C0883809F479C0803919F08038A2
:1007700009F0B7CF80916101803208F06FC0E0913D
:10078000610181E08E0F809361018091BB00F0E0F8
:10079000EF5BFE4F80833BC0803B39F0D0F4803A62
:1007A00009F477C0883A09F09CCF84E08093630114
:1007B0001092400110923F01F0E0E0E00995809135
:1007C0003F0181110FC081E080933F0110921F0112
:1007D00009C0803C09F4A8CF883C09F4A5CF883B28
:1007E00009F07FCFE091400181E08E0F80934001BE
:1007F000F0E0E15EFE4F80818093BB00909140016C
:1008000080913F0129C0809188018093BB0085ECD5
:100810008093BC0066CF90918701809186019817E4
:1008200058F5E091870181E08E0F80938701F0E019
:10083000EA59FE4F8081E9CFE091870181E08E0F78
:10084000809387018091BB00F0E0EA59FE4F8083DE
:1008500090918701809186019817C8F285E8D8CFDA
:10086000E091870181E08E0F809387018091BB002A
:10087000F0E0EA59FE4F80838091650181115ECFDF
:1008800081E08093640184EA8093BC00109263014C
:1008900028CF85EC8093BC001092630180916101A8
:1008A000803230F4E0916101F0E0EF5BFE4F1082A6
:1008B0006091610170E081E491E0F0E0E0E0099591
:1008C000109261010ECF1092620138CFE7E9F1E09A
:1008D0001382128288EE93E0A0E0B0E084839583D7
:1008E000A683B7838AE091E09183808385EC90E0D2
:1008F0009587848784EC90E09787868780EC90E0EA
:10090000918B808B81EC90E0938B828B82EC90E0DA
:10091000958B848B86EC90E0978B868B118E128E54
:10092000138E148E0895CF93DF9300D01F92CDB70E
:10093000DEB7789484B5826084BD84B5816084BD5F
:1009400085B5826085BD85B5816085BD80916E006D
:10095000816080936E00109281008091810082609E
:1009600080938100809181008160809381008091DB
:1009700080008160809380008091B10084608093CA
:10098000B1008091B00081608093B00080917A00C6
:10099000846080937A0080917A00826080937A00EC
:1009A00080917A00816080937A0080917A008068DB
:1009B00080937A001092C100E091A701F091A80104
:1009C00082E08083E091A301F091A4011082E09184
:1009D000A501F091A6018FEC80831092AF01E09108
:1009E000AB01F091AC0186E08083E091A901F09128
:1009F000AA01808180618083E091A901F091AA0120
:100A0000808188608083E091A901F091AA018081B2
:100A100080688083E091A901F091AA0180818F7D97
:100A2000808383E4B82E9DEFE92EFF24FA9423E01F
:100A3000C22ED12C00E010E0AA24A3943AE0932E19
:100A4000B0927C0080917A00806480937A008091DB
:100A50007A0086FDFCCF80917800E0917900FE2F2E
:100A6000E82FF0939601E093950180919401811114
:100A700029C02091040130910501809102019091DB
:100A80000301280F391F8091000190910101280F67
:100A9000391F2E5F3F4FC901B7010E94C9056E0F74
:100AA0007F1F161617060CF052C06530710554F002
:100AB00090E080E00E946F01A09294011092930157
:100AC0001092920180919201909193018835924009
:100AD00008F044C09B8280910001909101019983AC
:100AE0008A8343E050E0BE016F5F7F4F87E991E06A
:100AF0000E948200809192019091930101969093BF
:100B0000930180939201809102019091030190934F
:100B1000010180930001809104019091050190935F
:100B20000301809302018091950190919601909329
:100B30000501809304010115110509F481CF0E947C
:100B4000EC00882309F47CCF0E94000079CFC90112
:100B5000B6010E94C9056E1B7F0BA7CF809194013F
:100B6000882389F21092940190E080E00E946F0146
:100B700090E080E00E946F0190E080E00E946F01B1
:100B800090E080E00E946F018AE090E00E946F0197
:100B9000BACF97FB072E16F4009407D077FD09D043
:100BA0000E94DD0507FC05D03EF4909581959F4F8E
:100BB0000895709561957F4F0895AA1BBB1B51E165
:100BC00007C0AA1FBB1FA617B70710F0A61BB70BBD
:100BD000881F991F5A95A9F780959095BC01CD0162
:100BE0000895EE0FFF1F0590F491E02D0994F894FD
:100BF000FFCFFB01FB01FB0100000000220182008E
:0A0C0000AF007401E000BE00D20056
:107E000085E08093810082E08093C00088E18093C8
:107E1000C10086E08093C20080E18093C40084B7F3
:107E200014BE81FFD0D089E2C8D0259A86E020E335
:107E30003CEF91E0309385002093840096BBB09B8B
:107E4000FECF1D9AA8958150A9F7DD24D394A5E013
:107E5000EA2EF1E1FF2EA4D0813421F481E0BED0DE
:107E600083E024C0823411F484E103C0853419F422
:107E700085E0B4D08AC08535A1F492D0082F10E0F7
:107E800010930102009300028BD090E0982F882776
:107E9000802B912B880F991F9093010280930002F1
:107EA00073C0863529F484E099D080E071D06DC02C
:107EB000843609F043C07CD0E0910002F0910102C9
:107EC00083E080935700E895C0E0D1E069D08993C2
:107ED000809102028150809302028823B9F778D002
:107EE00007B600FCFDCF4091000250910102A0E0D6
:107EF000B1E02C9130E011968C91119790E0982F81
:107F00008827822B932B1296FA010C01D0925700EE
:107F1000E89511244E5F5F4FF1E0A038BF0749F7A5
:107F2000E0910002F0910102E0925700E89507B657
:107F300000FCFDCFF0925700E89527C08437B9F4D4
:107F400037D046D0E0910002F09101023196F093D3
:107F50000102E09300023197E4918E2F19D08091B5
:107F60000202815080930202882361F70EC0853798
:107F700039F42ED08EE10CD085E90AD08FE096CF6F
:107F8000813511F488E019D023D080E101D063CF8E
:107F9000982F8091C00085FFFCCF9093C600089574
:107FA000A8958091C00087FFFCCF8091C6000895FE
:107FB000F7DFF6DF80930202F3CFE0E6F0E098E12E
:107FC00090838083089580E0F8DFEE27FF270994EF
:107FD000E7DF803209F0F7DF84E1DACF1F93182F53
:0C7FE000DFDF1150E9F7F4DF1F91089576
:00000001FF
